{
  "_format": "hh-sol-artifact-1",
  "contractName": "PlatziPunks",
  "sourceName": "contracts/PlatziPunks.sol",
  "abi": [
    {
      "inputs": [
        {
          "internalType": "uint256",
          "name": "_maxSupply",
          "type": "uint256"
        }
      ],
      "stateMutability": "nonpayable",
      "type": "constructor"
    },
    {
      "anonymous": false,
      "inputs": [
        {
          "indexed": true,
          "internalType": "address",
          "name": "owner",
          "type": "address"
        },
        {
          "indexed": true,
          "internalType": "address",
          "name": "approved",
          "type": "address"
        },
        {
          "indexed": true,
          "internalType": "uint256",
          "name": "tokenId",
          "type": "uint256"
        }
      ],
      "name": "Approval",
      "type": "event"
    },
    {
      "anonymous": false,
      "inputs": [
        {
          "indexed": true,
          "internalType": "address",
          "name": "owner",
          "type": "address"
        },
        {
          "indexed": true,
          "internalType": "address",
          "name": "operator",
          "type": "address"
        },
        {
          "indexed": false,
          "internalType": "bool",
          "name": "approved",
          "type": "bool"
        }
      ],
      "name": "ApprovalForAll",
      "type": "event"
    },
    {
      "anonymous": false,
      "inputs": [
        {
          "indexed": true,
          "internalType": "address",
          "name": "previousOwner",
          "type": "address"
        },
        {
          "indexed": true,
          "internalType": "address",
          "name": "newOwner",
          "type": "address"
        }
      ],
      "name": "OwnershipTransferred",
      "type": "event"
    },
    {
      "anonymous": false,
      "inputs": [
        {
          "indexed": true,
          "internalType": "address",
          "name": "from",
          "type": "address"
        },
        {
          "indexed": true,
          "internalType": "address",
          "name": "to",
          "type": "address"
        },
        {
          "indexed": true,
          "internalType": "uint256",
          "name": "tokenId",
          "type": "uint256"
        }
      ],
      "name": "Transfer",
      "type": "event"
    },
    {
      "inputs": [
        {
          "internalType": "address",
          "name": "to",
          "type": "address"
        },
        {
          "internalType": "uint256",
          "name": "tokenId",
          "type": "uint256"
        }
      ],
      "name": "approve",
      "outputs": [],
      "stateMutability": "nonpayable",
      "type": "function"
    },
    {
      "inputs": [
        {
          "internalType": "address",
          "name": "owner",
          "type": "address"
        }
      ],
      "name": "balanceOf",
      "outputs": [
        {
          "internalType": "uint256",
          "name": "",
          "type": "uint256"
        }
      ],
      "stateMutability": "view",
      "type": "function"
    },
    {
      "inputs": [
        {
          "internalType": "uint256",
          "name": "_tokenId",
          "type": "uint256"
        },
        {
          "internalType": "address",
          "name": "_minter",
          "type": "address"
        }
      ],
      "name": "deterministicPseudoRandomDNA",
      "outputs": [
        {
          "internalType": "uint256",
          "name": "",
          "type": "uint256"
        }
      ],
      "stateMutability": "pure",
      "type": "function"
    },
    {
      "inputs": [
        {
          "internalType": "uint256",
          "name": "_dna",
          "type": "uint256"
        }
      ],
      "name": "getAccessoriesType",
      "outputs": [
        {
          "internalType": "string",
          "name": "",
          "type": "string"
        }
      ],
      "stateMutability": "view",
      "type": "function"
    },
    {
      "inputs": [
        {
          "internalType": "uint256",
          "name": "tokenId",
          "type": "uint256"
        }
      ],
      "name": "getApproved",
      "outputs": [
        {
          "internalType": "address",
          "name": "",
          "type": "address"
        }
      ],
      "stateMutability": "view",
      "type": "function"
    },
    {
      "inputs": [
        {
          "internalType": "uint256",
          "name": "_dna",
          "type": "uint256"
        }
      ],
      "name": "getClotheColor",
      "outputs": [
        {
          "internalType": "string",
          "name": "",
          "type": "string"
        }
      ],
      "stateMutability": "view",
      "type": "function"
    },
    {
      "inputs": [
        {
          "internalType": "uint256",
          "name": "_dna",
          "type": "uint256"
        }
      ],
      "name": "getClotheType",
      "outputs": [
        {
          "internalType": "string",
          "name": "",
          "type": "string"
        }
      ],
      "stateMutability": "view",
      "type": "function"
    },
    {
      "inputs": [
        {
          "internalType": "uint256",
          "name": "_dna",
          "type": "uint256"
        }
      ],
      "name": "getEyeBrowType",
      "outputs": [
        {
          "internalType": "string",
          "name": "",
          "type": "string"
        }
      ],
      "stateMutability": "view",
      "type": "function"
    },
    {
      "inputs": [
        {
          "internalType": "uint256",
          "name": "_dna",
          "type": "uint256"
        }
      ],
      "name": "getEyeType",
      "outputs": [
        {
          "internalType": "string",
          "name": "",
          "type": "string"
        }
      ],
      "stateMutability": "view",
      "type": "function"
    },
    {
      "inputs": [
        {
          "internalType": "uint256",
          "name": "_dna",
          "type": "uint256"
        }
      ],
      "name": "getFacialHairColor",
      "outputs": [
        {
          "internalType": "string",
          "name": "",
          "type": "string"
        }
      ],
      "stateMutability": "view",
      "type": "function"
    },
    {
      "inputs": [
        {
          "internalType": "uint256",
          "name": "_dna",
          "type": "uint256"
        }
      ],
      "name": "getFacialHairType",
      "outputs": [
        {
          "internalType": "string",
          "name": "",
          "type": "string"
        }
      ],
      "stateMutability": "view",
      "type": "function"
    },
    {
      "inputs": [
        {
          "internalType": "uint256",
          "name": "_dna",
          "type": "uint256"
        }
      ],
      "name": "getGraphicType",
      "outputs": [
        {
          "internalType": "string",
          "name": "",
          "type": "string"
        }
      ],
      "stateMutability": "view",
      "type": "function"
    },
    {
      "inputs": [
        {
          "internalType": "uint256",
          "name": "_dna",
          "type": "uint256"
        }
      ],
      "name": "getHairColor",
      "outputs": [
        {
          "internalType": "string",
          "name": "",
          "type": "string"
        }
      ],
      "stateMutability": "view",
      "type": "function"
    },
    {
      "inputs": [
        {
          "internalType": "uint256",
          "name": "_dna",
          "type": "uint256"
        }
      ],
      "name": "getHatColor",
      "outputs": [
        {
          "internalType": "string",
          "name": "",
          "type": "string"
        }
      ],
      "stateMutability": "view",
      "type": "function"
    },
    {
      "inputs": [
        {
          "internalType": "uint256",
          "name": "_dna",
          "type": "uint256"
        }
      ],
      "name": "getMouthType",
      "outputs": [
        {
          "internalType": "string",
          "name": "",
          "type": "string"
        }
      ],
      "stateMutability": "view",
      "type": "function"
    },
    {
      "inputs": [
        {
          "internalType": "uint256",
          "name": "_dna",
          "type": "uint256"
        }
      ],
      "name": "getSkinColor",
      "outputs": [
        {
          "internalType": "string",
          "name": "",
          "type": "string"
        }
      ],
      "stateMutability": "view",
      "type": "function"
    },
    {
      "inputs": [
        {
          "internalType": "uint256",
          "name": "_dna",
          "type": "uint256"
        }
      ],
      "name": "getTopType",
      "outputs": [
        {
          "internalType": "string",
          "name": "",
          "type": "string"
        }
      ],
      "stateMutability": "view",
      "type": "function"
    },
    {
      "inputs": [
        {
          "internalType": "uint256",
          "name": "_dna",
          "type": "uint256"
        }
      ],
      "name": "imageByDNA",
      "outputs": [
        {
          "internalType": "string",
          "name": "",
          "type": "string"
        }
      ],
      "stateMutability": "view",
      "type": "function"
    },
    {
      "inputs": [
        {
          "internalType": "address",
          "name": "owner",
          "type": "address"
        },
        {
          "internalType": "address",
          "name": "operator",
          "type": "address"
        }
      ],
      "name": "isApprovedForAll",
      "outputs": [
        {
          "internalType": "bool",
          "name": "",
          "type": "bool"
        }
      ],
      "stateMutability": "view",
      "type": "function"
    },
    {
      "inputs": [],
      "name": "maxSupply",
      "outputs": [
        {
          "internalType": "uint256",
          "name": "",
          "type": "uint256"
        }
      ],
      "stateMutability": "view",
      "type": "function"
    },
    {
      "inputs": [],
      "name": "mint",
      "outputs": [],
      "stateMutability": "nonpayable",
      "type": "function"
    },
    {
      "inputs": [],
      "name": "name",
      "outputs": [
        {
          "internalType": "string",
          "name": "",
          "type": "string"
        }
      ],
      "stateMutability": "view",
      "type": "function"
    },
    {
      "inputs": [],
      "name": "owner",
      "outputs": [
        {
          "internalType": "address",
          "name": "",
          "type": "address"
        }
      ],
      "stateMutability": "view",
      "type": "function"
    },
    {
      "inputs": [
        {
          "internalType": "uint256",
          "name": "tokenId",
          "type": "uint256"
        }
      ],
      "name": "ownerOf",
      "outputs": [
        {
          "internalType": "address",
          "name": "",
          "type": "address"
        }
      ],
      "stateMutability": "view",
      "type": "function"
    },
    {
      "inputs": [],
      "name": "renounceOwnership",
      "outputs": [],
      "stateMutability": "nonpayable",
      "type": "function"
    },
    {
      "inputs": [
        {
          "internalType": "address",
          "name": "from",
          "type": "address"
        },
        {
          "internalType": "address",
          "name": "to",
          "type": "address"
        },
        {
          "internalType": "uint256",
          "name": "tokenId",
          "type": "uint256"
        }
      ],
      "name": "safeTransferFrom",
      "outputs": [],
      "stateMutability": "nonpayable",
      "type": "function"
    },
    {
      "inputs": [
        {
          "internalType": "address",
          "name": "from",
          "type": "address"
        },
        {
          "internalType": "address",
          "name": "to",
          "type": "address"
        },
        {
          "internalType": "uint256",
          "name": "tokenId",
          "type": "uint256"
        },
        {
          "internalType": "bytes",
          "name": "data",
          "type": "bytes"
        }
      ],
      "name": "safeTransferFrom",
      "outputs": [],
      "stateMutability": "nonpayable",
      "type": "function"
    },
    {
      "inputs": [
        {
          "internalType": "address",
          "name": "operator",
          "type": "address"
        },
        {
          "internalType": "bool",
          "name": "approved",
          "type": "bool"
        }
      ],
      "name": "setApprovalForAll",
      "outputs": [],
      "stateMutability": "nonpayable",
      "type": "function"
    },
    {
      "inputs": [
        {
          "internalType": "bytes4",
          "name": "_interfaceId",
          "type": "bytes4"
        }
      ],
      "name": "supportsInterface",
      "outputs": [
        {
          "internalType": "bool",
          "name": "",
          "type": "bool"
        }
      ],
      "stateMutability": "view",
      "type": "function"
    },
    {
      "inputs": [],
      "name": "symbol",
      "outputs": [
        {
          "internalType": "string",
          "name": "",
          "type": "string"
        }
      ],
      "stateMutability": "view",
      "type": "function"
    },
    {
      "inputs": [
        {
          "internalType": "uint256",
          "name": "index",
          "type": "uint256"
        }
      ],
      "name": "tokenByIndex",
      "outputs": [
        {
          "internalType": "uint256",
          "name": "",
          "type": "uint256"
        }
      ],
      "stateMutability": "view",
      "type": "function"
    },
    {
      "inputs": [
        {
          "internalType": "uint256",
          "name": "",
          "type": "uint256"
        }
      ],
      "name": "tokenDNA",
      "outputs": [
        {
          "internalType": "uint256",
          "name": "",
          "type": "uint256"
        }
      ],
      "stateMutability": "view",
      "type": "function"
    },
    {
      "inputs": [
        {
          "internalType": "address",
          "name": "owner",
          "type": "address"
        },
        {
          "internalType": "uint256",
          "name": "index",
          "type": "uint256"
        }
      ],
      "name": "tokenOfOwnerByIndex",
      "outputs": [
        {
          "internalType": "uint256",
          "name": "",
          "type": "uint256"
        }
      ],
      "stateMutability": "view",
      "type": "function"
    },
    {
      "inputs": [
        {
          "internalType": "uint256",
          "name": "tokenId",
          "type": "uint256"
        }
      ],
      "name": "tokenURI",
      "outputs": [
        {
          "internalType": "string",
          "name": "",
          "type": "string"
        }
      ],
      "stateMutability": "view",
      "type": "function"
    },
    {
      "inputs": [],
      "name": "totalSupply",
      "outputs": [
        {
          "internalType": "uint256",
          "name": "",
          "type": "uint256"
        }
      ],
      "stateMutability": "view",
      "type": "function"
    },
    {
      "inputs": [
        {
          "internalType": "address",
          "name": "from",
          "type": "address"
        },
        {
          "internalType": "address",
          "name": "to",
          "type": "address"
        },
        {
          "internalType": "uint256",
          "name": "tokenId",
          "type": "uint256"
        }
      ],
      "name": "transferFrom",
      "outputs": [],
      "stateMutability": "nonpayable",
      "type": "function"
    },
    {
      "inputs": [
        {
          "internalType": "address",
          "name": "newOwner",
          "type": "address"
        }
      ],
      "name": "transferOwnership",
      "outputs": [],
      "stateMutability": "nonpayable",
      "type": "function"
    }
  ],
  "bytecode": "0x60806040526040518060e001604052806040518060400160405280600581526020017f426c616e6b00000000000000000000000000000000000000000000000000000081525081526020016040518060400160405280600481526020017f4b7572740000000000000000000000000000000000000000000000000000000081525081526020016040518060400160405280600e81526020017f507265736372697074696f6e303100000000000000000000000000000000000081525081526020016040518060400160405280600e81526020017f507265736372697074696f6e303200000000000000000000000000000000000081525081526020016040518060400160405280600581526020017f526f756e6400000000000000000000000000000000000000000000000000000081525081526020016040518060400160405280600a81526020017f53756e676c61737365730000000000000000000000000000000000000000000081525081526020016040518060400160405280600981526020017f5761796661726572730000000000000000000000000000000000000000000000815250815250600b906007620001bc929190620027ee565b50604051806101e001604052806040518060400160405280600581526020017f426c61636b00000000000000000000000000000000000000000000000000000081525081526020016040518060400160405280600681526020017f426c75653031000000000000000000000000000000000000000000000000000081525081526020016040518060400160405280600681526020017f426c75653032000000000000000000000000000000000000000000000000000081525081526020016040518060400160405280600681526020017f426c75653033000000000000000000000000000000000000000000000000000081525081526020016040518060400160405280600681526020017f477261793031000000000000000000000000000000000000000000000000000081525081526020016040518060400160405280600681526020017f477261793032000000000000000000000000000000000000000000000000000081525081526020016040518060400160405280600781526020017f486561746865720000000000000000000000000000000000000000000000000081525081526020016040518060400160405280600a81526020017f50617374656c426c75650000000000000000000000000000000000000000000081525081526020016040518060400160405280600b81526020017f50617374656c477265656e00000000000000000000000000000000000000000081525081526020016040518060400160405280600c81526020017f50617374656c4f72616e6765000000000000000000000000000000000000000081525081526020016040518060400160405280600981526020017f50617374656c526564000000000000000000000000000000000000000000000081525081526020016040518060400160405280600c81526020017f50617374656c59656c6c6f77000000000000000000000000000000000000000081525081526020016040518060400160405280600481526020017f50696e6b0000000000000000000000000000000000000000000000000000000081525081526020016040518060400160405280600381526020017f526564000000000000000000000000000000000000000000000000000000000081525081526020016040518060400160405280600581526020017f5768697465000000000000000000000000000000000000000000000000000000815250815250600c90600f6200054e92919062002855565b506040518061012001604052806040518060400160405280600b81526020017f426c617a6572536869727400000000000000000000000000000000000000000081525081526020016040518060400160405280600d81526020017f426c617a6572537765617465720000000000000000000000000000000000000081525081526020016040518060400160405280600d81526020017f436f6c6c6172537765617465720000000000000000000000000000000000000081525081526020016040518060400160405280600c81526020017f477261706869635368697274000000000000000000000000000000000000000081525081526020016040518060400160405280600681526020017f486f6f646965000000000000000000000000000000000000000000000000000081525081526020016040518060400160405280600781526020017f4f766572616c6c0000000000000000000000000000000000000000000000000081525081526020016040518060400160405280600d81526020017f5368697274437265774e65636b0000000000000000000000000000000000000081525081526020016040518060400160405280600e81526020017f536869727453636f6f704e65636b00000000000000000000000000000000000081525081526020016040518060400160405280600a81526020017f5368697274564e65636b00000000000000000000000000000000000000000000815250815250600d9060096200077e929190620028bc565b506040518061018001604052806040518060400160405280600581526020017f436c6f736500000000000000000000000000000000000000000000000000000081525081526020016040518060400160405280600381526020017f437279000000000000000000000000000000000000000000000000000000000081525081526020016040518060400160405280600781526020017f44656661756c740000000000000000000000000000000000000000000000000081525081526020016040518060400160405280600581526020017f44697a7a7900000000000000000000000000000000000000000000000000000081525081526020016040518060400160405280600781526020017f457965526f6c6c0000000000000000000000000000000000000000000000000081525081526020016040518060400160405280600581526020017f486170707900000000000000000000000000000000000000000000000000000081525081526020016040518060400160405280600681526020017f486561727473000000000000000000000000000000000000000000000000000081525081526020016040518060400160405280600481526020017f536964650000000000000000000000000000000000000000000000000000000081525081526020016040518060400160405280600681526020017f537175696e74000000000000000000000000000000000000000000000000000081525081526020016040518060400160405280600981526020017f537572707269736564000000000000000000000000000000000000000000000081525081526020016040518060400160405280600481526020017f57696e6b0000000000000000000000000000000000000000000000000000000081525081526020016040518060400160405280600981526020017f57696e6b5761636b790000000000000000000000000000000000000000000000815250815250600e90600c62000a5f92919062002923565b506040518061018001604052806040518060400160405280600581526020017f416e67727900000000000000000000000000000000000000000000000000000081525081526020016040518060400160405280600c81526020017f416e6772794e61747572616c000000000000000000000000000000000000000081525081526020016040518060400160405280600781526020017f44656661756c740000000000000000000000000000000000000000000000000081525081526020016040518060400160405280600e81526020017f44656661756c744e61747572616c00000000000000000000000000000000000081525081526020016040518060400160405280600b81526020017f466c61744e61747572616c00000000000000000000000000000000000000000081525081526020016040518060400160405280600d81526020017f526169736564457863697465640000000000000000000000000000000000000081525081526020016040518060400160405280601481526020017f526169736564457863697465644e61747572616c00000000000000000000000081525081526020016040518060400160405280600c81526020017f536164436f6e6365726e6564000000000000000000000000000000000000000081525081526020016040518060400160405280601381526020017f536164436f6e6365726e65644e61747572616c0000000000000000000000000081525081526020016040518060400160405280600e81526020017f556e6962726f774e61747572616c00000000000000000000000000000000000081525081526020016040518060400160405280600681526020017f5570446f776e000000000000000000000000000000000000000000000000000081525081526020016040518060400160405280600d81526020017f5570446f776e4e61747572616c00000000000000000000000000000000000000815250815250600f90600c62000d4092919062002923565b506040518061010001604052806040518060400160405280600681526020017f41756275726e000000000000000000000000000000000000000000000000000081525081526020016040518060400160405280600581526020017f426c61636b00000000000000000000000000000000000000000000000000000081525081526020016040518060400160405280600681526020017f426c6f6e6465000000000000000000000000000000000000000000000000000081525081526020016040518060400160405280600c81526020017f426c6f6e6465476f6c64656e000000000000000000000000000000000000000081525081526020016040518060400160405280600581526020017f42726f776e00000000000000000000000000000000000000000000000000000081525081526020016040518060400160405280600981526020017f42726f776e4461726b000000000000000000000000000000000000000000000081525081526020016040518060400160405280600881526020017f506c6174696e756d00000000000000000000000000000000000000000000000081525081526020016040518060400160405280600381526020017f5265640000000000000000000000000000000000000000000000000000000000815250815250601090600862000f359291906200298a565b506040518060c001604052806040518060400160405280600581526020017f426c616e6b00000000000000000000000000000000000000000000000000000081525081526020016040518060400160405280600b81526020017f42656172644d656469756d00000000000000000000000000000000000000000081525081526020016040518060400160405280600a81526020017f42656172644c696768740000000000000000000000000000000000000000000081525081526020016040518060400160405280600d81526020017f42656172644d616765737469630000000000000000000000000000000000000081525081526020016040518060400160405280600e81526020017f4d6f7573746163686546616e637900000000000000000000000000000000000081525081526020016040518060400160405280600f81526020017f4d6f757374616368654d61676e756d00000000000000000000000000000000008152508152506011906006620010b3929190620029f1565b506040518061014001604052806040518060400160405280600681526020017f41756275726e000000000000000000000000000000000000000000000000000081525081526020016040518060400160405280600581526020017f426c61636b00000000000000000000000000000000000000000000000000000081525081526020016040518060400160405280600681526020017f426c6f6e6465000000000000000000000000000000000000000000000000000081525081526020016040518060400160405280600c81526020017f426c6f6e6465476f6c64656e000000000000000000000000000000000000000081525081526020016040518060400160405280600581526020017f42726f776e00000000000000000000000000000000000000000000000000000081525081526020016040518060400160405280600981526020017f42726f776e4461726b000000000000000000000000000000000000000000000081525081526020016040518060400160405280600a81526020017f50617374656c50696e6b0000000000000000000000000000000000000000000081525081526020016040518060400160405280600881526020017f506c6174696e756d00000000000000000000000000000000000000000000000081525081526020016040518060400160405280600381526020017f526564000000000000000000000000000000000000000000000000000000000081525081526020016040518060400160405280600a81526020017f53696c7665724772617900000000000000000000000000000000000000000000815250815250601290600a6200131e92919062002a58565b50604051806101e001604052806040518060400160405280600581526020017f426c61636b00000000000000000000000000000000000000000000000000000081525081526020016040518060400160405280600681526020017f426c75653031000000000000000000000000000000000000000000000000000081525081526020016040518060400160405280600681526020017f426c75653032000000000000000000000000000000000000000000000000000081525081526020016040518060400160405280600681526020017f426c75653033000000000000000000000000000000000000000000000000000081525081526020016040518060400160405280600681526020017f477261793031000000000000000000000000000000000000000000000000000081525081526020016040518060400160405280600681526020017f477261793032000000000000000000000000000000000000000000000000000081525081526020016040518060400160405280600781526020017f486561746865720000000000000000000000000000000000000000000000000081525081526020016040518060400160405280600a81526020017f50617374656c426c75650000000000000000000000000000000000000000000081525081526020016040518060400160405280600b81526020017f50617374656c477265656e00000000000000000000000000000000000000000081525081526020016040518060400160405280600c81526020017f50617374656c4f72616e6765000000000000000000000000000000000000000081525081526020016040518060400160405280600981526020017f50617374656c526564000000000000000000000000000000000000000000000081525081526020016040518060400160405280600c81526020017f50617374656c59656c6c6f77000000000000000000000000000000000000000081525081526020016040518060400160405280600481526020017f50696e6b0000000000000000000000000000000000000000000000000000000081525081526020016040518060400160405280600381526020017f526564000000000000000000000000000000000000000000000000000000000081525081526020016040518060400160405280600581526020017f5768697465000000000000000000000000000000000000000000000000000000815250815250601390600f620016b092919062002855565b506040518061016001604052806040518060400160405280600381526020017f426174000000000000000000000000000000000000000000000000000000000081525081526020016040518060400160405280600681526020017f43756d626961000000000000000000000000000000000000000000000000000081525081526020016040518060400160405280600481526020017f446565720000000000000000000000000000000000000000000000000000000081525081526020016040518060400160405280600781526020017f4469616d6f6e640000000000000000000000000000000000000000000000000081525081526020016040518060400160405280600481526020017f486f6c610000000000000000000000000000000000000000000000000000000081525081526020016040518060400160405280600581526020017f50697a7a6100000000000000000000000000000000000000000000000000000081525081526020016040518060400160405280600681526020017f526573697374000000000000000000000000000000000000000000000000000081525081526020016040518060400160405280600681526020017f53656c656e61000000000000000000000000000000000000000000000000000081525081526020016040518060400160405280600481526020017f426561720000000000000000000000000000000000000000000000000000000081525081526020016040518060400160405280600c81526020017f536b756c6c4f75746c696e65000000000000000000000000000000000000000081525081526020016040518060400160405280600581526020017f536b756c6c000000000000000000000000000000000000000000000000000000815250815250601490600b6200195692919062002abf565b506040518061018001604052806040518060400160405280600981526020017f436f6e6365726e6564000000000000000000000000000000000000000000000081525081526020016040518060400160405280600781526020017f44656661756c740000000000000000000000000000000000000000000000000081525081526020016040518060400160405280600981526020017f44697362656c696566000000000000000000000000000000000000000000000081525081526020016040518060400160405280600681526020017f456174696e67000000000000000000000000000000000000000000000000000081525081526020016040518060400160405280600781526020017f4772696d6163650000000000000000000000000000000000000000000000000081525081526020016040518060400160405280600381526020017f536164000000000000000000000000000000000000000000000000000000000081525081526020016040518060400160405280600a81526020017f53637265616d4f70656e0000000000000000000000000000000000000000000081525081526020016040518060400160405280600781526020017f536572696f75730000000000000000000000000000000000000000000000000081525081526020016040518060400160405280600581526020017f536d696c6500000000000000000000000000000000000000000000000000000081525081526020016040518060400160405280600681526020017f546f6e677565000000000000000000000000000000000000000000000000000081525081526020016040518060400160405280600781526020017f5477696e6b6c650000000000000000000000000000000000000000000000000081525081526020016040518060400160405280600581526020017f566f6d6974000000000000000000000000000000000000000000000000000000815250815250601590600c62001c3792919062002923565b506040518060e001604052806040518060400160405280600681526020017f54616e6e6564000000000000000000000000000000000000000000000000000081525081526020016040518060400160405280600681526020017f59656c6c6f77000000000000000000000000000000000000000000000000000081525081526020016040518060400160405280600481526020017f50616c650000000000000000000000000000000000000000000000000000000081525081526020016040518060400160405280600581526020017f4c6967687400000000000000000000000000000000000000000000000000000081525081526020016040518060400160405280600581526020017f42726f776e00000000000000000000000000000000000000000000000000000081525081526020016040518060400160405280600981526020017f4461726b42726f776e000000000000000000000000000000000000000000000081525081526020016040518060400160405280600581526020017f426c61636b000000000000000000000000000000000000000000000000000000815250815250601690600762001df0929190620027ee565b506040518061046001604052806040518060400160405280600681526020017f4e6f48616972000000000000000000000000000000000000000000000000000081525081526020016040518060400160405280600881526020017f457965706174636800000000000000000000000000000000000000000000000081525081526020016040518060400160405280600381526020017f486174000000000000000000000000000000000000000000000000000000000081525081526020016040518060400160405280600581526020017f48696a616200000000000000000000000000000000000000000000000000000081525081526020016040518060400160405280600681526020017f54757262616e000000000000000000000000000000000000000000000000000081525081526020016040518060400160405280600a81526020017f57696e746572486174310000000000000000000000000000000000000000000081525081526020016040518060400160405280600a81526020017f57696e746572486174320000000000000000000000000000000000000000000081525081526020016040518060400160405280600a81526020017f57696e746572486174330000000000000000000000000000000000000000000081525081526020016040518060400160405280600a81526020017f57696e746572486174340000000000000000000000000000000000000000000081525081526020016040518060400160405280600f81526020017f4c6f6e674861697242696748616972000000000000000000000000000000000081525081526020016040518060400160405280600b81526020017f4c6f6e6748616972426f6200000000000000000000000000000000000000000081525081526020016040518060400160405280600b81526020017f4c6f6e674861697242756e00000000000000000000000000000000000000000081525081526020016040518060400160405280600d81526020017f4c6f6e67486169724375726c790000000000000000000000000000000000000081525081526020016040518060400160405280600d81526020017f4c6f6e674861697243757276790000000000000000000000000000000000000081525081526020016040518060400160405280600e81526020017f4c6f6e674861697244726561647300000000000000000000000000000000000081525081526020016040518060400160405280600d81526020017f4c6f6e674861697246726964610000000000000000000000000000000000000081525081526020016040518060400160405280600b81526020017f4c6f6e674861697246726f00000000000000000000000000000000000000000081525081526020016040518060400160405280600f81526020017f4c6f6e674861697246726f42616e64000000000000000000000000000000000081525081526020016040518060400160405280601281526020017f4c6f6e67486169724e6f74546f6f4c6f6e67000000000000000000000000000081525081526020016040518060400160405280601381526020017f4c6f6e674861697253686176656453696465730000000000000000000000000081525081526020016040518060400160405280601281526020017f4c6f6e67486169724d696157616c6c616365000000000000000000000000000081525081526020016040518060400160405280601081526020017f4c6f6e674861697253747261696768740000000000000000000000000000000081525081526020016040518060400160405280601181526020017f4c6f6e674861697253747261696768743200000000000000000000000000000081525081526020016040518060400160405280601681526020017f4c6f6e67486169725374726169676874537472616e640000000000000000000081525081526020016040518060400160405280601181526020017f53686f727448616972447265616473303100000000000000000000000000000081525081526020016040518060400160405280601181526020017f53686f727448616972447265616473303200000000000000000000000000000081525081526020016040518060400160405280601081526020017f53686f7274486169724672697a7a6c650000000000000000000000000000000081525081526020016040518060400160405280601581526020017f53686f7274486169725368616767794d756c6c6574000000000000000000000081525081526020016040518060400160405280601381526020017f53686f72744861697253686f72744375726c790000000000000000000000000081525081526020016040518060400160405280601281526020017f53686f72744861697253686f7274466c6174000000000000000000000000000081525081526020016040518060400160405280601381526020017f53686f72744861697253686f7274526f756e640000000000000000000000000081525081526020016040518060400160405280601381526020017f53686f72744861697253686f727457617665640000000000000000000000000081525081526020016040518060400160405280600e81526020017f53686f727448616972536964657300000000000000000000000000000000000081525081526020016040518060400160405280601281526020017f53686f727448616972546865436165736172000000000000000000000000000081525081526020016040518060400160405280601a81526020017f53686f727448616972546865436165736172536964655061727400000000000081525081525060179060236200261e92919062002b26565b503480156200262c57600080fd5b5060405162007ed538038062007ed5833981810160405281019062002652919062002cc2565b6040518060400160405280600b81526020017f506c61747a6950756e6b730000000000000000000000000000000000000000008152506040518060400160405280600581526020017f504c504b530000000000000000000000000000000000000000000000000000008152508160009080519060200190620026d692919062002b8d565b508060019080519060200190620026ef92919062002b8d565b50505062002712620027066200272060201b60201c565b6200272860201b60201c565b806019819055505062002d77565b600033905090565b6000600a60009054906101000a900473ffffffffffffffffffffffffffffffffffffffff16905081600a60006101000a81548173ffffffffffffffffffffffffffffffffffffffff021916908373ffffffffffffffffffffffffffffffffffffffff1602179055508173ffffffffffffffffffffffffffffffffffffffff168173ffffffffffffffffffffffffffffffffffffffff167f8be0079c531659141344cd1fd0a4f28419497f9722a3daafe3b4186f6b6457e060405160405180910390a35050565b82805482825590600052602060002090810192821562002842579160200282015b82811115620028415782518290805190602001906200283092919062002b8d565b50916020019190600101906200280f565b5b50905062002851919062002c1e565b5090565b828054828255906000526020600020908101928215620028a9579160200282015b82811115620028a85782518290805190602001906200289792919062002b8d565b509160200191906001019062002876565b5b509050620028b8919062002c1e565b5090565b82805482825590600052602060002090810192821562002910579160200282015b828111156200290f578251829080519060200190620028fe92919062002b8d565b5091602001919060010190620028dd565b5b5090506200291f919062002c1e565b5090565b82805482825590600052602060002090810192821562002977579160200282015b82811115620029765782518290805190602001906200296592919062002b8d565b509160200191906001019062002944565b5b50905062002986919062002c1e565b5090565b828054828255906000526020600020908101928215620029de579160200282015b82811115620029dd578251829080519060200190620029cc92919062002b8d565b5091602001919060010190620029ab565b5b509050620029ed919062002c1e565b5090565b82805482825590600052602060002090810192821562002a45579160200282015b8281111562002a4457825182908051906020019062002a3392919062002b8d565b509160200191906001019062002a12565b5b50905062002a54919062002c1e565b5090565b82805482825590600052602060002090810192821562002aac579160200282015b8281111562002aab57825182908051906020019062002a9a92919062002b8d565b509160200191906001019062002a79565b5b50905062002abb919062002c1e565b5090565b82805482825590600052602060002090810192821562002b13579160200282015b8281111562002b1257825182908051906020019062002b0192919062002b8d565b509160200191906001019062002ae0565b5b50905062002b22919062002c1e565b5090565b82805482825590600052602060002090810192821562002b7a579160200282015b8281111562002b7957825182908051906020019062002b6892919062002b8d565b509160200191906001019062002b47565b5b50905062002b89919062002c1e565b5090565b82805462002b9b9062002cf8565b90600052602060002090601f01602090048101928262002bbf576000855562002c0b565b82601f1062002bda57805160ff191683800117855562002c0b565b8280016001018555821562002c0b579182015b8281111562002c0a57825182559160200191906001019062002bed565b5b50905062002c1a919062002c46565b5090565b5b8082111562002c42576000818162002c38919062002c65565b5060010162002c1f565b5090565b5b8082111562002c6157600081600090555060010162002c47565b5090565b50805462002c739062002cf8565b6000825580601f1062002c87575062002ca8565b601f01602090049060005260206000209081019062002ca7919062002c46565b5b50565b60008151905062002cbc8162002d5d565b92915050565b60006020828403121562002cd557600080fd5b600062002ce58482850162002cab565b91505092915050565b6000819050919050565b6000600282049050600182168062002d1157607f821691505b6020821081141562002d285762002d2762002d2e565b5b50919050565b7f4e487b7100000000000000000000000000000000000000000000000000000000600052602260045260246000fd5b62002d688162002cee565b811462002d7457600080fd5b50565b61514e8062002d876000396000f3fe608060405234801561001057600080fd5b50600436106102275760003560e01c80637ecaef0611610130578063b88d4fde116100b8578063d5abeb011161007c578063d5abeb0114610734578063dac1419e14610752578063e2eced2814610782578063e985e9c5146107b2578063f2fde38b146107e257610227565b8063b88d4fde14610658578063be65d75114610674578063c0496cf5146106a4578063c87b56dd146106d4578063cc4e56951461070457610227565b80638da5cb5b116100ff5780638da5cb5b146105a057806395d89b41146105be578063a22cb465146105dc578063a2ec3e9e146105f8578063b70930de1461062857610227565b80637ecaef06146104e057806384425a84146105105780638602dd6a1461054057806388ee2c161461057057610227565b80632f745c59116101b357806360d58aed1161018257806360d58aed146104165780636352211e1461044657806370a0823114610476578063715018a6146104a657806373075aff146104b057610227565b80632f745c591461036a578063425d784f1461039a57806342842e0e146103ca5780634f6ccce7146103e657610227565b8063095ea7b3116101fa578063095ea7b3146102da5780631249c58b146102f657806318160ddd1461030057806318a3c0d11461031e57806323b872dd1461034e57610227565b806301ffc9a71461022c578063039984ba1461025c57806306fdde031461028c578063081812fc146102aa575b600080fd5b610246600480360381019061024191906137a3565b6107fe565b604051610253919061407b565b60405180910390f35b610276600480360381019061027191906137f5565b610810565b6040516102839190614096565b60405180910390f35b610294610908565b6040516102a19190614096565b60405180910390f35b6102c460048036038101906102bf91906137f5565b61099a565b6040516102d19190614014565b60405180910390f35b6102f460048036038101906102ef9190613767565b6109e0565b005b6102fe610af8565b005b610308610b82565b60405161031591906142d8565b60405180910390f35b610338600480360381019061033391906137f5565b610b8f565b6040516103459190614096565b60405180910390f35b61036860048036038101906103639190613661565b610c87565b005b610384600480360381019061037f9190613767565b610ce7565b60405161039191906142d8565b60405180910390f35b6103b460048036038101906103af91906137f5565b610d8c565b6040516103c19190614096565b60405180910390f35b6103e460048036038101906103df9190613661565b610e84565b005b61040060048036038101906103fb91906137f5565b610ea4565b60405161040d91906142d8565b60405180910390f35b610430600480360381019061042b91906137f5565b610f3b565b60405161043d9190614096565b60405180910390f35b610460600480360381019061045b91906137f5565b611033565b60405161046d9190614014565b60405180910390f35b610490600480360381019061048b91906135fc565b6110e5565b60405161049d91906142d8565b60405180910390f35b6104ae61119d565b005b6104ca60048036038101906104c591906137f5565b6111b1565b6040516104d79190614096565b60405180910390f35b6104fa60048036038101906104f591906137f5565b6112a9565b6040516105079190614096565b60405180910390f35b61052a600480360381019061052591906137f5565b6113a1565b6040516105379190614096565b60405180910390f35b61055a600480360381019061055591906137f5565b611499565b6040516105679190614096565b60405180910390f35b61058a6004803603810190610585919061381e565b611591565b60405161059791906142d8565b60405180910390f35b6105a86115f7565b6040516105b59190614014565b60405180910390f35b6105c6611621565b6040516105d39190614096565b60405180910390f35b6105f660048036038101906105f1919061372b565b6116b3565b005b610612600480360381019061060d91906137f5565b6116c9565b60405161061f9190614096565b60405180910390f35b610642600480360381019061063d91906137f5565b6117c1565b60405161064f9190614096565b60405180910390f35b610672600480360381019061066d91906136b0565b6118b9565b005b61068e600480360381019061068991906137f5565b61191b565b60405161069b91906142d8565b60405180910390f35b6106be60048036038101906106b991906137f5565b611933565b6040516106cb9190614096565b60405180910390f35b6106ee60048036038101906106e991906137f5565b611a2b565b6040516106fb9190614096565b60405180910390f35b61071e600480360381019061071991906137f5565b611afa565b60405161072b9190614096565b60405180910390f35b61073c611bf2565b60405161074991906142d8565b60405180910390f35b61076c600480360381019061076791906137f5565b611bf8565b6040516107799190614096565b60405180910390f35b61079c600480360381019061079791906137f5565b611cf0565b6040516107a99190614096565b60405180910390f35b6107cc60048036038101906107c79190613625565b611d36565b6040516107d9919061407b565b60405180910390f35b6107fc60048036038101906107f791906135fc565b611dca565b005b600061080982611e4e565b9050919050565b6060600061081f836008611ec8565b60ff169050600f80805490508261083691906147c2565b8154811061086d577f4e487b7100000000000000000000000000000000000000000000000000000000600052603260045260246000fd5b9060005260206000200180546108829061470c565b80601f01602080910402602001604051908101604052809291908181526020018280546108ae9061470c565b80156108fb5780601f106108d0576101008083540402835291602001916108fb565b820191906000526020600020905b8154815290600101906020018083116108de57829003601f168201915b5050505050915050919050565b6060600080546109179061470c565b80601f01602080910402602001604051908101604052809291908181526020018280546109439061470c565b80156109905780601f1061096557610100808354040283529160200191610990565b820191906000526020600020905b81548152906001019060200180831161097357829003601f168201915b5050505050905090565b60006109a582611f25565b6004600083815260200190815260200160002060009054906101000a900473ffffffffffffffffffffffffffffffffffffffff169050919050565b60006109eb82611033565b90508073ffffffffffffffffffffffffffffffffffffffff168373ffffffffffffffffffffffffffffffffffffffff161415610a5c576040517f08c379a0000000000000000000000000000000000000000000000000000000008152600401610a5390614278565b60405180910390fd5b8073ffffffffffffffffffffffffffffffffffffffff16610a7b611f70565b73ffffffffffffffffffffffffffffffffffffffff161480610aaa5750610aa981610aa4611f70565b611d36565b5b610ae9576040517f08c379a0000000000000000000000000000000000000000000000000000000008152600401610ae0906141d8565b60405180910390fd5b610af38383611f78565b505050565b6000610b046018612031565b90506019548110610b4a576040517f08c379a0000000000000000000000000000000000000000000000000000000008152600401610b4190614138565b60405180910390fd5b610b548133611591565b601a600083815260200190815260200160002081905550610b75601861203f565b610b7f3382612055565b50565b6000600880549050905090565b60606000610b9e836004611ec8565b60ff169050600d808054905082610bb591906147c2565b81548110610bec577f4e487b7100000000000000000000000000000000000000000000000000000000600052603260045260246000fd5b906000526020600020018054610c019061470c565b80601f0160208091040260200160405190810160405280929190818152602001828054610c2d9061470c565b8015610c7a5780601f10610c4f57610100808354040283529160200191610c7a565b820191906000526020600020905b815481529060010190602001808311610c5d57829003601f168201915b5050505050915050919050565b610c98610c92611f70565b82612073565b610cd7576040517f08c379a0000000000000000000000000000000000000000000000000000000008152600401610cce906142b8565b60405180910390fd5b610ce2838383612108565b505050565b6000610cf2836110e5565b8210610d33576040517f08c379a0000000000000000000000000000000000000000000000000000000008152600401610d2a906140b8565b60405180910390fd5b600660008473ffffffffffffffffffffffffffffffffffffffff1673ffffffffffffffffffffffffffffffffffffffff168152602001908152602001600020600083815260200190815260200160002054905092915050565b60606000610d9b836014611ec8565b60ff1690506015808054905082610db291906147c2565b81548110610de9577f4e487b7100000000000000000000000000000000000000000000000000000000600052603260045260246000fd5b906000526020600020018054610dfe9061470c565b80601f0160208091040260200160405190810160405280929190818152602001828054610e2a9061470c565b8015610e775780601f10610e4c57610100808354040283529160200191610e77565b820191906000526020600020905b815481529060010190602001808311610e5a57829003601f168201915b5050505050915050919050565b610e9f838383604051806020016040528060008152506118b9565b505050565b6000610eae610b82565b8210610eef576040517f08c379a0000000000000000000000000000000000000000000000000000000008152600401610ee690614298565b60405180910390fd5b60088281548110610f29577f4e487b7100000000000000000000000000000000000000000000000000000000600052603260045260246000fd5b90600052602060002001549050919050565b60606000610f4a836018611ec8565b60ff1690506017808054905082610f6191906147c2565b81548110610f98577f4e487b7100000000000000000000000000000000000000000000000000000000600052603260045260246000fd5b906000526020600020018054610fad9061470c565b80601f0160208091040260200160405190810160405280929190818152602001828054610fd99061470c565b80156110265780601f10610ffb57610100808354040283529160200191611026565b820191906000526020600020905b81548152906001019060200180831161100957829003601f168201915b5050505050915050919050565b6000806002600084815260200190815260200160002060009054906101000a900473ffffffffffffffffffffffffffffffffffffffff169050600073ffffffffffffffffffffffffffffffffffffffff168173ffffffffffffffffffffffffffffffffffffffff1614156110dc576040517f08c379a00000000000000000000000000000000000000000000000000000000081526004016110d390614258565b60405180910390fd5b80915050919050565b60008073ffffffffffffffffffffffffffffffffffffffff168273ffffffffffffffffffffffffffffffffffffffff161415611156576040517f08c379a000000000000000000000000000000000000000000000000000000000815260040161114d906141b8565b60405180910390fd5b600360008373ffffffffffffffffffffffffffffffffffffffff1673ffffffffffffffffffffffffffffffffffffffff168152602001908152602001600020549050919050565b6111a561236f565b6111af60006123ed565b565b606060006111c0836016611ec8565b60ff16905060168080549050826111d791906147c2565b8154811061120e577f4e487b7100000000000000000000000000000000000000000000000000000000600052603260045260246000fd5b9060005260206000200180546112239061470c565b80601f016020809104026020016040519081016040528092919081815260200182805461124f9061470c565b801561129c5780601f106112715761010080835404028352916020019161129c565b820191906000526020600020905b81548152906001019060200180831161127f57829003601f168201915b5050505050915050919050565b606060006112b8836000611ec8565b60ff169050600b8080549050826112cf91906147c2565b81548110611306577f4e487b7100000000000000000000000000000000000000000000000000000000600052603260045260246000fd5b90600052602060002001805461131b9061470c565b80601f01602080910402602001604051908101604052809291908181526020018280546113479061470c565b80156113945780601f1061136957610100808354040283529160200191611394565b820191906000526020600020905b81548152906001019060200180831161137757829003601f168201915b5050505050915050919050565b606060006113b0836006611ec8565b60ff169050600e8080549050826113c791906147c2565b815481106113fe577f4e487b7100000000000000000000000000000000000000000000000000000000600052603260045260246000fd5b9060005260206000200180546114139061470c565b80601f016020809104026020016040519081016040528092919081815260200182805461143f9061470c565b801561148c5780601f106114615761010080835404028352916020019161148c565b820191906000526020600020905b81548152906001019060200180831161146f57829003601f168201915b5050505050915050919050565b606060006114a8836012611ec8565b60ff16905060148080549050826114bf91906147c2565b815481106114f6577f4e487b7100000000000000000000000000000000000000000000000000000000600052603260045260246000fd5b90600052602060002001805461150b9061470c565b80601f01602080910402602001604051908101604052809291908181526020018280546115379061470c565b80156115845780601f1061155957610100808354040283529160200191611584565b820191906000526020600020905b81548152906001019060200180831161156757829003601f168201915b5050505050915050919050565b6000808273ffffffffffffffffffffffffffffffffffffffff16846115b6919061438c565b90506000816040516020016115cb9190613ff9565b60405160208183030381529060405290506000818051906020012090508060001c935050505092915050565b6000600a60009054906101000a900473ffffffffffffffffffffffffffffffffffffffff16905090565b6060600180546116309061470c565b80601f016020809104026020016040519081016040528092919081815260200182805461165c9061470c565b80156116a95780601f1061167e576101008083540402835291602001916116a9565b820191906000526020600020905b81548152906001019060200180831161168c57829003601f168201915b5050505050905090565b6116c56116be611f70565b83836124b3565b5050565b606060006116d8836010611ec8565b60ff16905060138080549050826116ef91906147c2565b81548110611726577f4e487b7100000000000000000000000000000000000000000000000000000000600052603260045260246000fd5b90600052602060002001805461173b9061470c565b80601f01602080910402602001604051908101604052809291908181526020018280546117679061470c565b80156117b45780601f10611789576101008083540402835291602001916117b4565b820191906000526020600020905b81548152906001019060200180831161179757829003601f168201915b5050505050915050919050565b606060006117d083600e611ec8565b60ff16905060128080549050826117e791906147c2565b8154811061181e577f4e487b7100000000000000000000000000000000000000000000000000000000600052603260045260246000fd5b9060005260206000200180546118339061470c565b80601f016020809104026020016040519081016040528092919081815260200182805461185f9061470c565b80156118ac5780601f10611881576101008083540402835291602001916118ac565b820191906000526020600020905b81548152906001019060200180831161188f57829003601f168201915b5050505050915050919050565b6118ca6118c4611f70565b83612073565b611909576040517f08c379a0000000000000000000000000000000000000000000000000000000008152600401611900906142b8565b60405180910390fd5b61191584848484612620565b50505050565b601a6020528060005260406000206000915090505481565b60606000611942836002611ec8565b60ff169050600c80805490508261195991906147c2565b81548110611990577f4e487b7100000000000000000000000000000000000000000000000000000000600052603260045260246000fd5b9060005260206000200180546119a59061470c565b80601f01602080910402602001604051908101604052809291908181526020018280546119d19061470c565b8015611a1e5780601f106119f357610100808354040283529160200191611a1e565b820191906000526020600020905b815481529060010190602001808311611a0157829003601f168201915b5050505050915050919050565b6060611a368261267c565b611a75576040517f08c379a0000000000000000000000000000000000000000000000000000000008152600401611a6c90614238565b60405180910390fd5b6000601a60008481526020019081526020016000205490506000611a9882611cf0565b90506000611ace611aa8866126e8565b83604051602001611aba929190613e68565b604051602081830303815290604052612895565b905080604051602001611ae19190613fd7565b6040516020818303038152906040529350505050919050565b60606000611b0983600a611ec8565b60ff1690506010808054905082611b2091906147c2565b81548110611b57577f4e487b7100000000000000000000000000000000000000000000000000000000600052603260045260246000fd5b906000526020600020018054611b6c9061470c565b80601f0160208091040260200160405190810160405280929190818152602001828054611b989061470c565b8015611be55780601f10611bba57610100808354040283529160200191611be5565b820191906000526020600020905b815481529060010190602001808311611bc857829003601f168201915b5050505050915050919050565b60195481565b60606000611c0783600c611ec8565b60ff1690506011808054905082611c1e91906147c2565b81548110611c55577f4e487b7100000000000000000000000000000000000000000000000000000000600052603260045260246000fd5b906000526020600020018054611c6a9061470c565b80601f0160208091040260200160405190810160405280929190818152602001828054611c969061470c565b8015611ce35780601f10611cb857610100808354040283529160200191611ce3565b820191906000526020600020905b815481529060010190602001808311611cc657829003601f168201915b5050505050915050919050565b60606000611cfc612a40565b90506000611d0984612a7d565b90508181604051602001611d1e929190613e39565b60405160208183030381529060405292505050919050565b6000600560008473ffffffffffffffffffffffffffffffffffffffff1673ffffffffffffffffffffffffffffffffffffffff16815260200190815260200160002060008373ffffffffffffffffffffffffffffffffffffffff1673ffffffffffffffffffffffffffffffffffffffff16815260200190815260200160002060009054906101000a900460ff16905092915050565b611dd261236f565b600073ffffffffffffffffffffffffffffffffffffffff168173ffffffffffffffffffffffffffffffffffffffff161415611e42576040517f08c379a0000000000000000000000000000000000000000000000000000000008152600401611e39906140f8565b60405180910390fd5b611e4b816123ed565b50565b60007f780e9d63000000000000000000000000000000000000000000000000000000007bffffffffffffffffffffffffffffffffffffffffffffffffffffffff1916827bffffffffffffffffffffffffffffffffffffffffffffffffffffffff19161480611ec15750611ec082612b4a565b5b9050919050565b600081600a611ed7919061449d565b6001611ee391906145bb565b600283611ef091906143e2565b600a611efc919061449d565b6001611f0891906145bb565b84611f1391906147c2565b611f1d9190614419565b905092915050565b611f2e8161267c565b611f6d576040517f08c379a0000000000000000000000000000000000000000000000000000000008152600401611f6490614258565b60405180910390fd5b50565b600033905090565b816004600083815260200190815260200160002060006101000a81548173ffffffffffffffffffffffffffffffffffffffff021916908373ffffffffffffffffffffffffffffffffffffffff160217905550808273ffffffffffffffffffffffffffffffffffffffff16611feb83611033565b73ffffffffffffffffffffffffffffffffffffffff167f8c5be1e5ebec7d5bd14f71427d1e84f3dd0314c0f7b2291e5b200ac8c7c3b92560405160405180910390a45050565b600081600001549050919050565b6001816000016000828254019250508190555050565b61206f828260405180602001604052806000815250612c2c565b5050565b60008061207f83611033565b90508073ffffffffffffffffffffffffffffffffffffffff168473ffffffffffffffffffffffffffffffffffffffff1614806120c157506120c08185611d36565b5b806120ff57508373ffffffffffffffffffffffffffffffffffffffff166120e78461099a565b73ffffffffffffffffffffffffffffffffffffffff16145b91505092915050565b8273ffffffffffffffffffffffffffffffffffffffff1661212882611033565b73ffffffffffffffffffffffffffffffffffffffff161461217e576040517f08c379a000000000000000000000000000000000000000000000000000000000815260040161217590614118565b60405180910390fd5b600073ffffffffffffffffffffffffffffffffffffffff168273ffffffffffffffffffffffffffffffffffffffff1614156121ee576040517f08c379a00000000000000000000000000000000000000000000000000000000081526004016121e590614178565b60405180910390fd5b6121f9838383612c87565b612204600082611f78565b6001600360008573ffffffffffffffffffffffffffffffffffffffff1673ffffffffffffffffffffffffffffffffffffffff16815260200190815260200160002060008282546122549190614615565b925050819055506001600360008473ffffffffffffffffffffffffffffffffffffffff1673ffffffffffffffffffffffffffffffffffffffff16815260200190815260200160002060008282546122ab919061438c565b92505081905550816002600083815260200190815260200160002060006101000a81548173ffffffffffffffffffffffffffffffffffffffff021916908373ffffffffffffffffffffffffffffffffffffffff160217905550808273ffffffffffffffffffffffffffffffffffffffff168473ffffffffffffffffffffffffffffffffffffffff167fddf252ad1be2c89b69c2b068fc378daa952ba7f163c4a11628f55a4df523b3ef60405160405180910390a461236a838383612c97565b505050565b612377611f70565b73ffffffffffffffffffffffffffffffffffffffff166123956115f7565b73ffffffffffffffffffffffffffffffffffffffff16146123eb576040517f08c379a00000000000000000000000000000000000000000000000000000000081526004016123e290614218565b60405180910390fd5b565b6000600a60009054906101000a900473ffffffffffffffffffffffffffffffffffffffff16905081600a60006101000a81548173ffffffffffffffffffffffffffffffffffffffff021916908373ffffffffffffffffffffffffffffffffffffffff1602179055508173ffffffffffffffffffffffffffffffffffffffff168173ffffffffffffffffffffffffffffffffffffffff167f8be0079c531659141344cd1fd0a4f28419497f9722a3daafe3b4186f6b6457e060405160405180910390a35050565b8173ffffffffffffffffffffffffffffffffffffffff168373ffffffffffffffffffffffffffffffffffffffff161415612522576040517f08c379a000000000000000000000000000000000000000000000000000000000815260040161251990614198565b60405180910390fd5b80600560008573ffffffffffffffffffffffffffffffffffffffff1673ffffffffffffffffffffffffffffffffffffffff16815260200190815260200160002060008473ffffffffffffffffffffffffffffffffffffffff1673ffffffffffffffffffffffffffffffffffffffff16815260200190815260200160002060006101000a81548160ff0219169083151502179055508173ffffffffffffffffffffffffffffffffffffffff168373ffffffffffffffffffffffffffffffffffffffff167f17307eab39ab6107e8899845ad3d59bd9653f200f220920489ca2b5937696c3183604051612613919061407b565b60405180910390a3505050565b61262b848484612108565b61263784848484612c9c565b612676576040517f08c379a000000000000000000000000000000000000000000000000000000000815260040161266d906140d8565b60405180910390fd5b50505050565b60008073ffffffffffffffffffffffffffffffffffffffff166002600084815260200190815260200160002060009054906101000a900473ffffffffffffffffffffffffffffffffffffffff1673ffffffffffffffffffffffffffffffffffffffff1614159050919050565b60606000821415612730576040518060400160405280600181526020017f30000000000000000000000000000000000000000000000000000000000000008152509050612890565b600082905060005b6000821461276257808061274b9061476f565b915050600a8261275b9190614419565b9150612738565b60008167ffffffffffffffff8111156127a4577f4e487b7100000000000000000000000000000000000000000000000000000000600052604160045260246000fd5b6040519080825280601f01601f1916602001820160405280156127d65781602001600182028036833780820191505090505b5090505b60008514612889576001826127ef9190614615565b9150600a856127fe91906147c2565b603061280a919061438c565b60f81b818381518110612846577f4e487b7100000000000000000000000000000000000000000000000000000000600052603260045260246000fd5b60200101907effffffffffffffffffffffffffffffffffffffffffffffffffffffffffffff1916908160001a905350600a856128829190614419565b94506127da565b8093505050505b919050565b60606000825114156128b857604051806020016040528060008152509050612a3b565b60006040518060600160405280604081526020016150d960409139905060006003600285516128e7919061438c565b6128f19190614419565b60046128fd91906145bb565b9050600060208261290e919061438c565b67ffffffffffffffff81111561294d577f4e487b7100000000000000000000000000000000000000000000000000000000600052604160045260246000fd5b6040519080825280601f01601f19166020018201604052801561297f5781602001600182028036833780820191505090505b509050818152600183018586518101602084015b818310156129fa576003830192508251603f8160121c1685015160f81b8252600182019150603f81600c1c1685015160f81b8252600182019150603f8160061c1685015160f81b8252600182019150603f811685015160f81b825260018201915050612993565b600389510660018114612a145760028114612a2457612a2f565b613d3d60f01b6002830352612a2f565b603d60f81b60018303525b50505050508093505050505b919050565b60606040518060400160405280601581526020017f68747470733a2f2f6176617461616172732e696f2f0000000000000000000000815250905090565b606080612a89836112a9565b612a9284611933565b612a9b85610b8f565b612aa4866113a1565b612aad87610810565b612ab688611afa565b612abf89611bf8565b612ac88a6117c1565b612ad18b6116c9565b612ada8c611499565b612ae38d610d8c565b612aec8e6111b1565b604051602001612b079c9b9a99989796959493929190613ead565b604051602081830303815290604052905080612b2284610f3b565b604051602001612b33929190613e0a565b604051602081830303815290604052915050919050565b60007f80ac58cd000000000000000000000000000000000000000000000000000000007bffffffffffffffffffffffffffffffffffffffffffffffffffffffff1916827bffffffffffffffffffffffffffffffffffffffffffffffffffffffff19161480612c1557507f5b5e139f000000000000000000000000000000000000000000000000000000007bffffffffffffffffffffffffffffffffffffffffffffffffffffffff1916827bffffffffffffffffffffffffffffffffffffffffffffffffffffffff1916145b80612c255750612c2482612e33565b5b9050919050565b612c368383612e9d565b612c436000848484612c9c565b612c82576040517f08c379a0000000000000000000000000000000000000000000000000000000008152600401612c79906140d8565b60405180910390fd5b505050565b612c92838383613077565b505050565b505050565b6000612cbd8473ffffffffffffffffffffffffffffffffffffffff1661318b565b15612e26578373ffffffffffffffffffffffffffffffffffffffff1663150b7a02612ce6611f70565b8786866040518563ffffffff1660e01b8152600401612d08949392919061402f565b602060405180830381600087803b158015612d2257600080fd5b505af1925050508015612d5357506040513d601f19601f82011682018060405250810190612d5091906137cc565b60015b612dd6573d8060008114612d83576040519150601f19603f3d011682016040523d82523d6000602084013e612d88565b606091505b50600081511415612dce576040517f08c379a0000000000000000000000000000000000000000000000000000000008152600401612dc5906140d8565b60405180910390fd5b805181602001fd5b63150b7a0260e01b7bffffffffffffffffffffffffffffffffffffffffffffffffffffffff1916817bffffffffffffffffffffffffffffffffffffffffffffffffffffffff191614915050612e2b565b600190505b949350505050565b60007f01ffc9a7000000000000000000000000000000000000000000000000000000007bffffffffffffffffffffffffffffffffffffffffffffffffffffffff1916827bffffffffffffffffffffffffffffffffffffffffffffffffffffffff1916149050919050565b600073ffffffffffffffffffffffffffffffffffffffff168273ffffffffffffffffffffffffffffffffffffffff161415612f0d576040517f08c379a0000000000000000000000000000000000000000000000000000000008152600401612f04906141f8565b60405180910390fd5b612f168161267c565b15612f56576040517f08c379a0000000000000000000000000000000000000000000000000000000008152600401612f4d90614158565b60405180910390fd5b612f6260008383612c87565b6001600360008473ffffffffffffffffffffffffffffffffffffffff1673ffffffffffffffffffffffffffffffffffffffff1681526020019081526020016000206000828254612fb2919061438c565b92505081905550816002600083815260200190815260200160002060006101000a81548173ffffffffffffffffffffffffffffffffffffffff021916908373ffffffffffffffffffffffffffffffffffffffff160217905550808273ffffffffffffffffffffffffffffffffffffffff16600073ffffffffffffffffffffffffffffffffffffffff167fddf252ad1be2c89b69c2b068fc378daa952ba7f163c4a11628f55a4df523b3ef60405160405180910390a461307360008383612c97565b5050565b6130828383836131ae565b600073ffffffffffffffffffffffffffffffffffffffff168373ffffffffffffffffffffffffffffffffffffffff1614156130c5576130c0816131b3565b613104565b8173ffffffffffffffffffffffffffffffffffffffff168373ffffffffffffffffffffffffffffffffffffffff16146131035761310283826131fc565b5b5b600073ffffffffffffffffffffffffffffffffffffffff168273ffffffffffffffffffffffffffffffffffffffff1614156131475761314281613369565b613186565b8273ffffffffffffffffffffffffffffffffffffffff168273ffffffffffffffffffffffffffffffffffffffff16146131855761318482826134ac565b5b5b505050565b6000808273ffffffffffffffffffffffffffffffffffffffff163b119050919050565b505050565b6008805490506009600083815260200190815260200160002081905550600881908060018154018082558091505060019003906000526020600020016000909190919091505550565b60006001613209846110e5565b6132139190614615565b90506000600760008481526020019081526020016000205490508181146132f8576000600660008673ffffffffffffffffffffffffffffffffffffffff1673ffffffffffffffffffffffffffffffffffffffff168152602001908152602001600020600084815260200190815260200160002054905080600660008773ffffffffffffffffffffffffffffffffffffffff1673ffffffffffffffffffffffffffffffffffffffff168152602001908152602001600020600084815260200190815260200160002081905550816007600083815260200190815260200160002081905550505b6007600084815260200190815260200160002060009055600660008573ffffffffffffffffffffffffffffffffffffffff1673ffffffffffffffffffffffffffffffffffffffff16815260200190815260200160002060008381526020019081526020016000206000905550505050565b6000600160088054905061337d9190614615565b90506000600960008481526020019081526020016000205490506000600883815481106133d3577f4e487b7100000000000000000000000000000000000000000000000000000000600052603260045260246000fd5b90600052602060002001549050806008838154811061341b577f4e487b7100000000000000000000000000000000000000000000000000000000600052603260045260246000fd5b906000526020600020018190555081600960008381526020019081526020016000208190555060096000858152602001908152602001600020600090556008805480613490577f4e487b7100000000000000000000000000000000000000000000000000000000600052603160045260246000fd5b6001900381819060005260206000200160009055905550505050565b60006134b7836110e5565b905081600660008573ffffffffffffffffffffffffffffffffffffffff1673ffffffffffffffffffffffffffffffffffffffff168152602001908152602001600020600083815260200190815260200160002081905550806007600084815260200190815260200160002081905550505050565b600061353e61353984614318565b6142f3565b90508281526020810184848401111561355657600080fd5b6135618482856146ca565b509392505050565b6000813590506135788161507c565b92915050565b60008135905061358d81615093565b92915050565b6000813590506135a2816150aa565b92915050565b6000815190506135b7816150aa565b92915050565b600082601f8301126135ce57600080fd5b81356135de84826020860161352b565b91505092915050565b6000813590506135f6816150c1565b92915050565b60006020828403121561360e57600080fd5b600061361c84828501613569565b91505092915050565b6000806040838503121561363857600080fd5b600061364685828601613569565b925050602061365785828601613569565b9150509250929050565b60008060006060848603121561367657600080fd5b600061368486828701613569565b935050602061369586828701613569565b92505060406136a6868287016135e7565b9150509250925092565b600080600080608085870312156136c657600080fd5b60006136d487828801613569565b94505060206136e587828801613569565b93505060406136f6878288016135e7565b925050606085013567ffffffffffffffff81111561371357600080fd5b61371f878288016135bd565b91505092959194509250565b6000806040838503121561373e57600080fd5b600061374c85828601613569565b925050602061375d8582860161357e565b9150509250929050565b6000806040838503121561377a57600080fd5b600061378885828601613569565b9250506020613799858286016135e7565b9150509250929050565b6000602082840312156137b557600080fd5b60006137c384828501613593565b91505092915050565b6000602082840312156137de57600080fd5b60006137ec848285016135a8565b91505092915050565b60006020828403121561380757600080fd5b6000613815848285016135e7565b91505092915050565b6000806040838503121561383157600080fd5b600061383f858286016135e7565b925050602061385085828601613569565b9150509250929050565b61386381614649565b82525050565b6138728161465b565b82525050565b600061388382614349565b61388d818561435f565b935061389d8185602086016146d9565b6138a6816148af565b840191505092915050565b60006138bc82614354565b6138c68185614370565b93506138d68185602086016146d9565b6138df816148af565b840191505092915050565b60006138f582614354565b6138ff8185614381565b935061390f8185602086016146d9565b80840191505092915050565b6000613928600983614381565b9150613933826148cd565b600982019050919050565b600061394b601183614381565b9150613956826148f6565b601182019050919050565b600061396e602b83614370565b91506139798261491f565b604082019050919050565b6000613991603283614370565b915061399c8261496e565b604082019050919050565b60006139b4602683614370565b91506139bf826149bd565b604082019050919050565b60006139d7602583614370565b91506139e282614a0c565b604082019050919050565b60006139fa602083614370565b9150613a0582614a5b565b602082019050919050565b6000613a1d601c83614370565b9150613a2882614a84565b602082019050919050565b6000613a40601683614381565b9150613a4b82614aad565b601682019050919050565b6000613a63600a83614381565b9150613a6e82614ad6565b600a82019050919050565b6000613a86600c83614381565b9150613a9182614aff565b600c82019050919050565b6000613aa9602483614370565b9150613ab482614b28565b604082019050919050565b6000613acc601983614370565b9150613ad782614b77565b602082019050919050565b6000613aef600b83614381565b9150613afa82614ba0565b600b82019050919050565b6000613b12600d83614381565b9150613b1d82614bc9565b600d82019050919050565b6000613b35600b83614381565b9150613b4082614bf2565b600b82019050919050565b6000613b58600183614381565b9150613b6382614c1b565b600182019050919050565b6000613b7b602983614370565b9150613b8682614c44565b604082019050919050565b6000613b9e600b83614381565b9150613ba982614c93565b600b82019050919050565b6000613bc1600283614381565b9150613bcc82614cbc565b600282019050919050565b6000613be4603e83614370565b9150613bef82614ce5565b604082019050919050565b6000613c07602083614370565b9150613c1282614d34565b602082019050919050565b6000613c2a607983614381565b9150613c3582614d5d565b607982019050919050565b6000613c4d600d83614381565b9150613c5882614df8565b600d82019050919050565b6000613c70602083614370565b9150613c7b82614e21565b602082019050919050565b6000613c93600983614381565b9150613c9e82614e4a565b600982019050919050565b6000613cb6602f83614370565b9150613cc182614e73565b604082019050919050565b6000613cd9601883614370565b9150613ce482614ec2565b602082019050919050565b6000613cfc602183614370565b9150613d0782614eeb565b604082019050919050565b6000613d1f600d83614381565b9150613d2a82614f3a565b600d82019050919050565b6000613d42601083614381565b9150613d4d82614f63565b601082019050919050565b6000613d65601d83614381565b9150613d7082614f8c565b601d82019050919050565b6000613d88602c83614370565b9150613d9382614fb5565b604082019050919050565b6000613dab601083614381565b9150613db682615004565b601082019050919050565b6000613dce602e83614370565b9150613dd98261502d565b604082019050919050565b613ded816146b3565b82525050565b613e04613dff826146b3565b6147b8565b82525050565b6000613e1682856138ea565b9150613e218261391b565b9150613e2d82846138ea565b91508190509392505050565b6000613e4582856138ea565b9150613e5082613b4b565b9150613e5c82846138ea565b91508190509392505050565b6000613e7382613a33565b9150613e7f82856138ea565b9150613e8a82613c1d565b9150613e9682846138ea565b9150613ea182613bb4565b91508190509392505050565b6000613eb882613d35565b9150613ec4828f6138ea565b9150613ecf82613b05565b9150613edb828e6138ea565b9150613ee682613a79565b9150613ef2828d6138ea565b9150613efd82613c86565b9150613f09828c6138ea565b9150613f1482613d12565b9150613f20828b6138ea565b9150613f2b8261393e565b9150613f37828a6138ea565b9150613f4282613d9e565b9150613f4e82896138ea565b9150613f5982613ae2565b9150613f6582886138ea565b9150613f7082613a56565b9150613f7c82876138ea565b9150613f8782613c40565b9150613f9382866138ea565b9150613f9e82613b91565b9150613faa82856138ea565b9150613fb582613b28565b9150613fc182846138ea565b91508190509d9c50505050505050505050505050565b6000613fe282613d58565b9150613fee82846138ea565b915081905092915050565b60006140058284613df3565b60208201915081905092915050565b6000602082019050614029600083018461385a565b92915050565b6000608082019050614044600083018761385a565b614051602083018661385a565b61405e6040830185613de4565b81810360608301526140708184613878565b905095945050505050565b60006020820190506140906000830184613869565b92915050565b600060208201905081810360008301526140b081846138b1565b905092915050565b600060208201905081810360008301526140d181613961565b9050919050565b600060208201905081810360008301526140f181613984565b9050919050565b60006020820190508181036000830152614111816139a7565b9050919050565b60006020820190508181036000830152614131816139ca565b9050919050565b60006020820190508181036000830152614151816139ed565b9050919050565b6000602082019050818103600083015261417181613a10565b9050919050565b6000602082019050818103600083015261419181613a9c565b9050919050565b600060208201905081810360008301526141b181613abf565b9050919050565b600060208201905081810360008301526141d181613b6e565b9050919050565b600060208201905081810360008301526141f181613bd7565b9050919050565b6000602082019050818103600083015261421181613bfa565b9050919050565b6000602082019050818103600083015261423181613c63565b9050919050565b6000602082019050818103600083015261425181613ca9565b9050919050565b6000602082019050818103600083015261427181613ccc565b9050919050565b6000602082019050818103600083015261429181613cef565b9050919050565b600060208201905081810360008301526142b181613d7b565b9050919050565b600060208201905081810360008301526142d181613dc1565b9050919050565b60006020820190506142ed6000830184613de4565b92915050565b60006142fd61430e565b9050614309828261473e565b919050565b6000604051905090565b600067ffffffffffffffff82111561433357614332614880565b5b61433c826148af565b9050602081019050919050565b600081519050919050565b600081519050919050565b600082825260208201905092915050565b600082825260208201905092915050565b600081905092915050565b6000614397826146b3565b91506143a2836146b3565b9250827fffffffffffffffffffffffffffffffffffffffffffffffffffffffffffffffff038211156143d7576143d66147f3565b5b828201905092915050565b60006143ed826146bd565b91506143f8836146bd565b92508260ff0382111561440e5761440d6147f3565b5b828201905092915050565b6000614424826146b3565b915061442f836146b3565b92508261443f5761443e614822565b5b828204905092915050565b6000808291508390505b6001851115614494578086048111156144705761446f6147f3565b5b600185161561447f5780820291505b808102905061448d856148c0565b9450614454565b94509492505050565b60006144a8826146b3565b91506144b3836146bd565b92506144e07fffffffffffffffffffffffffffffffffffffffffffffffffffffffffffffffff84846144e8565b905092915050565b6000826144f857600190506145b4565b8161450657600090506145b4565b816001811461451c576002811461452657614555565b60019150506145b4565b60ff841115614538576145376147f3565b5b8360020a91508482111561454f5761454e6147f3565b5b506145b4565b5060208310610133831016604e8410600b841016171561458a5782820a905083811115614585576145846147f3565b5b6145b4565b614597848484600161444a565b925090508184048111156145ae576145ad6147f3565b5b81810290505b9392505050565b60006145c6826146b3565b91506145d1836146b3565b9250817fffffffffffffffffffffffffffffffffffffffffffffffffffffffffffffffff048311821515161561460a576146096147f3565b5b828202905092915050565b6000614620826146b3565b915061462b836146b3565b92508282101561463e5761463d6147f3565b5b828203905092915050565b600061465482614693565b9050919050565b60008115159050919050565b60007fffffffff0000000000000000000000000000000000000000000000000000000082169050919050565b600073ffffffffffffffffffffffffffffffffffffffff82169050919050565b6000819050919050565b600060ff82169050919050565b82818337600083830152505050565b60005b838110156146f75780820151818401526020810190506146dc565b83811115614706576000848401525b50505050565b6000600282049050600182168061472457607f821691505b6020821081141561473857614737614851565b5b50919050565b614747826148af565b810181811067ffffffffffffffff8211171561476657614765614880565b5b80604052505050565b600061477a826146b3565b91507fffffffffffffffffffffffffffffffffffffffffffffffffffffffffffffffff8214156147ad576147ac6147f3565b5b600182019050919050565b6000819050919050565b60006147cd826146b3565b91506147d8836146b3565b9250826147e8576147e7614822565b5b828206905092915050565b7f4e487b7100000000000000000000000000000000000000000000000000000000600052601160045260246000fd5b7f4e487b7100000000000000000000000000000000000000000000000000000000600052601260045260246000fd5b7f4e487b7100000000000000000000000000000000000000000000000000000000600052602260045260246000fd5b7f4e487b7100000000000000000000000000000000000000000000000000000000600052604160045260246000fd5b6000601f19601f8301169050919050565b60008160011c9050919050565b7f26746f70547970653d0000000000000000000000000000000000000000000000600082015250565b7f2666616369616c48616972436f6c6f723d000000000000000000000000000000600082015250565b7f455243373231456e756d657261626c653a206f776e657220696e646578206f7560008201527f74206f6620626f756e6473000000000000000000000000000000000000000000602082015250565b7f4552433732313a207472616e7366657220746f206e6f6e20455243373231526560008201527f63656976657220696d706c656d656e7465720000000000000000000000000000602082015250565b7f4f776e61626c653a206e6577206f776e657220697320746865207a65726f206160008201527f6464726573730000000000000000000000000000000000000000000000000000602082015250565b7f4552433732313a207472616e736665722066726f6d20696e636f72726563742060008201527f6f776e6572000000000000000000000000000000000000000000000000000000602082015250565b7f546865726520617265206e6f20506c61747a6950756e6b73206c656674203a28600082015250565b7f4552433732313a20746f6b656e20616c7265616479206d696e74656400000000600082015250565b7f7b226e616d65223a2022506c61747a6950756e6b202300000000000000000000600082015250565b7f26686174436f6c6f723d00000000000000000000000000000000000000000000600082015250565b7f26636c6f746865547970653d0000000000000000000000000000000000000000600082015250565b7f4552433732313a207472616e7366657220746f20746865207a65726f2061646460008201527f7265737300000000000000000000000000000000000000000000000000000000602082015250565b7f4552433732313a20617070726f766520746f2063616c6c657200000000000000600082015250565b7f2668616972436f6c6f723d000000000000000000000000000000000000000000600082015250565b7f26636c6f746865436f6c6f723d00000000000000000000000000000000000000600082015250565b7f26736b696e436f6c6f723d000000000000000000000000000000000000000000600082015250565b7f3f00000000000000000000000000000000000000000000000000000000000000600082015250565b7f4552433732313a2061646472657373207a65726f206973206e6f74206120766160008201527f6c6964206f776e65720000000000000000000000000000000000000000000000602082015250565b7f266d6f757468547970653d000000000000000000000000000000000000000000600082015250565b7f227d000000000000000000000000000000000000000000000000000000000000600082015250565b7f4552433732313a20617070726f76652063616c6c6572206973206e6f7420746f60008201527f6b656e206f776e6572206e6f7220617070726f76656420666f7220616c6c0000602082015250565b7f4552433732313a206d696e7420746f20746865207a65726f2061646472657373600082015250565b7f222c20226465736372697074696f6e223a2022506c61747a692050756e6b732060008201527f6172652072616e646f6d697a6564204176617461616172732073746f7265642060208201527f6f6e20636861696e20746f207465616368204441707020646576656c6f706d6560408201527f6e74206f6e20506c61747a69222c2022696d616765223a202200000000000000606082015250565b7f2667726170686963547970653d00000000000000000000000000000000000000600082015250565b7f4f776e61626c653a2063616c6c6572206973206e6f7420746865206f776e6572600082015250565b7f26657965547970653d0000000000000000000000000000000000000000000000600082015250565b7f4552433732314d657461646174613a2055524920717565727920666f72206e6f60008201527f6e6578697374656e7420746f6b656e0000000000000000000000000000000000602082015250565b7f4552433732313a20696e76616c696420746f6b656e2049440000000000000000600082015250565b7f4552433732313a20617070726f76616c20746f2063757272656e74206f776e6560008201527f7200000000000000000000000000000000000000000000000000000000000000602082015250565b7f2665796562726f77547970653d00000000000000000000000000000000000000600082015250565b7f6163636573736f72696573547970653d00000000000000000000000000000000600082015250565b7f646174613a6170706c69636174696f6e2f6a736f6e3b6261736536342c000000600082015250565b7f455243373231456e756d657261626c653a20676c6f62616c20696e646578206f60008201527f7574206f6620626f756e64730000000000000000000000000000000000000000602082015250565b7f2666616369616c48616972547970653d00000000000000000000000000000000600082015250565b7f4552433732313a2063616c6c6572206973206e6f7420746f6b656e206f776e6560008201527f72206e6f7220617070726f766564000000000000000000000000000000000000602082015250565b61508581614649565b811461509057600080fd5b50565b61509c8161465b565b81146150a757600080fd5b50565b6150b381614667565b81146150be57600080fd5b50565b6150ca816146b3565b81146150d557600080fd5b5056fe4142434445464748494a4b4c4d4e4f505152535455565758595a6162636465666768696a6b6c6d6e6f707172737475767778797a303132333435363738392b2fa264697066735822122096ec8db3346b62a5eb21d826991a1db89e7457ae123efbdefe6b415c3a14fc1b64736f6c63430008040033",
  "linkReferences": {},
  "deployedLinkReferences": {}
}